{
    "_format": "hh-sol-artifact-1",
    "contractName": "Emotes",
    "sourceName": "contracts/Emotes.sol",
    "abi": [
        {
            "inputs": [],
            "stateMutability": "nonpayable",
            "type": "constructor"
        },
        {
            "anonymous": false,
            "inputs": [
                {
                    "indexed": true,
                    "internalType": "address",
                    "name": "owner",
                    "type": "address"
                },
                {
                    "indexed": true,
                    "internalType": "address",
                    "name": "approved",
                    "type": "address"
                },
                {
                    "indexed": true,
                    "internalType": "uint256",
                    "name": "tokenId",
                    "type": "uint256"
                }
            ],
            "name": "Approval",
            "type": "event"
        },
        {
            "anonymous": false,
            "inputs": [
                {
                    "indexed": true,
                    "internalType": "address",
                    "name": "owner",
                    "type": "address"
                },
                {
                    "indexed": true,
                    "internalType": "address",
                    "name": "operator",
                    "type": "address"
                },
                {
                    "indexed": false,
                    "internalType": "bool",
                    "name": "approved",
                    "type": "bool"
                }
            ],
            "name": "ApprovalForAll",
            "type": "event"
        },
        {
            "anonymous": false,
            "inputs": [
                {
                    "indexed": true,
                    "internalType": "address",
                    "name": "from",
                    "type": "address"
                },
                {
                    "indexed": true,
                    "internalType": "address",
                    "name": "to",
                    "type": "address"
                },
                {
                    "indexed": true,
                    "internalType": "uint256",
                    "name": "tokenId",
                    "type": "uint256"
                }
            ],
            "name": "Transfer",
            "type": "event"
        },
        {
            "anonymous": false,
            "inputs": [
                {
                    "indexed": false,
                    "internalType": "address",
                    "name": "to",
                    "type": "address"
                },
                {
                    "indexed": false,
                    "internalType": "uint256",
                    "name": "tokenId",
                    "type": "uint256"
                },
                {
                    "indexed": false,
                    "internalType": "string",
                    "name": "ipfsHash",
                    "type": "string"
                }
            ],
            "name": "emoteTransfer",
            "type": "event"
        },
        {
            "inputs": [
                {
                    "internalType": "uint256",
                    "name": "",
                    "type": "uint256"
                }
            ],
            "name": "_tokenURIs",
            "outputs": [
                {
                    "internalType": "string",
                    "name": "",
                    "type": "string"
                }
            ],
            "stateMutability": "view",
            "type": "function"
        },
        {
            "inputs": [
                {
                    "internalType": "address",
                    "name": "to",
                    "type": "address"
                },
                {
                    "internalType": "uint256",
                    "name": "tokenId",
                    "type": "uint256"
                }
            ],
            "name": "approve",
            "outputs": [],
            "stateMutability": "nonpayable",
            "type": "function"
        },
        {
            "inputs": [
                {
                    "internalType": "address",
                    "name": "owner",
                    "type": "address"
                }
            ],
            "name": "balanceOf",
            "outputs": [
                {
                    "internalType": "uint256",
                    "name": "",
                    "type": "uint256"
                }
            ],
            "stateMutability": "view",
            "type": "function"
        },
        {
            "inputs": [
                {
                    "internalType": "uint256",
                    "name": "tokenId",
                    "type": "uint256"
                }
            ],
            "name": "getApproved",
            "outputs": [
                {
                    "internalType": "address",
                    "name": "",
                    "type": "address"
                }
            ],
            "stateMutability": "view",
            "type": "function"
        },
        {
            "inputs": [],
            "name": "getTotalEmotesMinted",
            "outputs": [
                {
                    "internalType": "uint256",
                    "name": "",
                    "type": "uint256"
                }
            ],
            "stateMutability": "view",
            "type": "function"
        },
        {
            "inputs": [
                {
                    "internalType": "address",
                    "name": "owner",
                    "type": "address"
                },
                {
                    "internalType": "address",
                    "name": "operator",
                    "type": "address"
                }
            ],
            "name": "isApprovedForAll",
            "outputs": [
                {
                    "internalType": "bool",
                    "name": "",
                    "type": "bool"
                }
            ],
            "stateMutability": "view",
            "type": "function"
        },
        {
            "inputs": [],
            "name": "name",
            "outputs": [
                {
                    "internalType": "string",
                    "name": "",
                    "type": "string"
                }
            ],
            "stateMutability": "view",
            "type": "function"
        },
        {
            "inputs": [
                {
                    "internalType": "uint256",
                    "name": "tokenId",
                    "type": "uint256"
                }
            ],
            "name": "ownerOf",
            "outputs": [
                {
                    "internalType": "address",
                    "name": "",
                    "type": "address"
                }
            ],
            "stateMutability": "view",
            "type": "function"
        },
        {
            "inputs": [
                {
                    "internalType": "address",
                    "name": "from",
                    "type": "address"
                },
                {
                    "internalType": "address",
                    "name": "to",
                    "type": "address"
                },
                {
                    "internalType": "uint256",
                    "name": "tokenId",
                    "type": "uint256"
                }
            ],
            "name": "safeTransferFrom",
            "outputs": [],
            "stateMutability": "nonpayable",
            "type": "function"
        },
        {
            "inputs": [
                {
                    "internalType": "address",
                    "name": "from",
                    "type": "address"
                },
                {
                    "internalType": "address",
                    "name": "to",
                    "type": "address"
                },
                {
                    "internalType": "uint256",
                    "name": "tokenId",
                    "type": "uint256"
                },
                {
                    "internalType": "bytes",
                    "name": "_data",
                    "type": "bytes"
                }
            ],
            "name": "safeTransferFrom",
            "outputs": [],
            "stateMutability": "nonpayable",
            "type": "function"
        },
        {
            "inputs": [
                {
                    "internalType": "address",
                    "name": "operator",
                    "type": "address"
                },
                {
                    "internalType": "bool",
                    "name": "approved",
                    "type": "bool"
                }
            ],
            "name": "setApprovalForAll",
            "outputs": [],
            "stateMutability": "nonpayable",
            "type": "function"
        },
        {
            "inputs": [
                {
                    "internalType": "bytes4",
                    "name": "interfaceId",
                    "type": "bytes4"
                }
            ],
            "name": "supportsInterface",
            "outputs": [
                {
                    "internalType": "bool",
                    "name": "",
                    "type": "bool"
                }
            ],
            "stateMutability": "view",
            "type": "function"
        },
        {
            "inputs": [],
            "name": "symbol",
            "outputs": [
                {
                    "internalType": "string",
                    "name": "",
                    "type": "string"
                }
            ],
            "stateMutability": "view",
            "type": "function"
        },
        {
            "inputs": [
                {
                    "internalType": "uint256",
                    "name": "tokenId",
                    "type": "uint256"
                }
            ],
            "name": "tokenURI",
            "outputs": [
                {
                    "internalType": "string",
                    "name": "",
                    "type": "string"
                }
            ],
            "stateMutability": "view",
            "type": "function"
        },
        {
            "inputs": [
                {
                    "internalType": "address",
                    "name": "from",
                    "type": "address"
                },
                {
                    "internalType": "address",
                    "name": "to",
                    "type": "address"
                },
                {
                    "internalType": "uint256",
                    "name": "tokenId",
                    "type": "uint256"
                }
            ],
            "name": "transferFrom",
            "outputs": [],
            "stateMutability": "nonpayable",
            "type": "function"
        },
        {
            "inputs": [
                {
                    "internalType": "string",
                    "name": "_ipfsHash",
                    "type": "string"
                }
            ],
            "name": "uploadEmote",
            "outputs": [
                {
                    "internalType": "uint256",
                    "name": "",
                    "type": "uint256"
                }
            ],
            "stateMutability": "nonpayable",
            "type": "function"
        }
    ],
    "bytecode": "0x608060405260006007553480156200001657600080fd5b506040518060400160405280600881526020017f456d6f74654261670000000000000000000000000000000000000000000000008152506040518060400160405280600481526020017f454d54530000000000000000000000000000000000000000000000000000000081525081600090805190602001906200009b929190620001b8565b508060019080519060200190620000b4929190620001b8565b505050620000e66040518060600160405280603481526020016200310d60349139620000ec60201b62000e071760201c565b62000395565b6200018c81604051602401620001039190620002a9565b6040516020818303038152906040527f41304fac000000000000000000000000000000000000000000000000000000007bffffffffffffffffffffffffffffffffffffffffffffffffffffffff19166020820180517bffffffffffffffffffffffffffffffffffffffffffffffffffffffff83818316178352505050506200018f60201b60201c565b50565b60008151905060006a636f6e736f6c652e6c6f679050602083016000808483855afa5050505050565b828054620001c6906200031f565b90600052602060002090601f016020900481019282620001ea576000855562000236565b82601f106200020557805160ff191683800117855562000236565b8280016001018555821562000236579182015b828111156200023557825182559160200191906001019062000218565b5b50905062000245919062000249565b5090565b5b80821115620002645760008160009055506001016200024a565b5090565b60006200027582620002cd565b620002818185620002d8565b935062000293818560208601620002e9565b6200029e8162000384565b840191505092915050565b60006020820190508181036000830152620002c5818462000268565b905092915050565b600081519050919050565b600082825260208201905092915050565b60005b8381101562000309578082015181840152602081019050620002ec565b8381111562000319576000848401525b50505050565b600060028204905060018216806200033857607f821691505b602082108114156200034f576200034e62000355565b5b50919050565b7f4e487b7100000000000000000000000000000000000000000000000000000000600052602260045260246000fd5b6000601f19601f8301169050919050565b612d6880620003a56000396000f3fe608060405234801561001057600080fd5b50600436106101005760003560e01c80636c58aefb11610097578063a22cb46511610066578063a22cb465146102d3578063b88d4fde146102ef578063c87b56dd1461030b578063e985e9c51461033b57610100565b80636c58aefb1461023757806370a082311461025557806395d89b41146102855780639d89945b146102a357610100565b80630bb78ec1116100d35780630bb78ec11461019f57806323b872dd146101cf57806342842e0e146101eb5780636352211e1461020757610100565b806301ffc9a71461010557806306fdde0314610135578063081812fc14610153578063095ea7b314610183575b600080fd5b61011f600480360381019061011a9190611eb1565b61036b565b60405161012c919061268e565b60405180910390f35b61013d61044d565b60405161014a91906126a9565b60405180910390f35b61016d60048036038101906101689190611f44565b6104df565b60405161017a91906125e9565b60405180910390f35b61019d60048036038101906101989190611e75565b610564565b005b6101b960048036038101906101b49190611f44565b61067c565b6040516101c691906126a9565b60405180910390f35b6101e960048036038101906101e49190611d6f565b61071c565b005b61020560048036038101906102009190611d6f565b61077c565b005b610221600480360381019061021c9190611f44565b61079c565b60405161022e91906125e9565b60405180910390f35b61023f61084e565b60405161024c91906128db565b60405180910390f35b61026f600480360381019061026a9190611d0a565b61087c565b60405161027c91906128db565b60405180910390f35b61028d610934565b60405161029a91906126a9565b60405180910390f35b6102bd60048036038101906102b89190611f03565b6109c6565b6040516102ca91906128db565b60405180910390f35b6102ed60048036038101906102e89190611e39565b610a3e565b005b61030960048036038101906103049190611dbe565b610bbf565b005b61032560048036038101906103209190611f44565b610c21565b60405161033291906126a9565b60405180910390f35b61035560048036038101906103509190611d33565b610d73565b604051610362919061268e565b60405180910390f35b60007f80ac58cd000000000000000000000000000000000000000000000000000000007bffffffffffffffffffffffffffffffffffffffffffffffffffffffff1916827bffffffffffffffffffffffffffffffffffffffffffffffffffffffff1916148061043657507f5b5e139f000000000000000000000000000000000000000000000000000000007bffffffffffffffffffffffffffffffffffffffffffffffffffffffff1916827bffffffffffffffffffffffffffffffffffffffffffffffffffffffff1916145b80610446575061044582610ea0565b5b9050919050565b60606000805461045c90612b3b565b80601f016020809104026020016040519081016040528092919081815260200182805461048890612b3b565b80156104d55780601f106104aa576101008083540402835291602001916104d5565b820191906000526020600020905b8154815290600101906020018083116104b857829003601f168201915b5050505050905090565b60006104ea82610f0a565b610529576040517f08c379a00000000000000000000000000000000000000000000000000000000081526004016105209061283b565b60405180910390fd5b6004600083815260200190815260200160002060009054906101000a900473ffffffffffffffffffffffffffffffffffffffff169050919050565b600061056f8261079c565b90508073ffffffffffffffffffffffffffffffffffffffff168373ffffffffffffffffffffffffffffffffffffffff1614156105e0576040517f08c379a00000000000000000000000000000000000000000000000000000000081526004016105d79061289b565b60405180910390fd5b8073ffffffffffffffffffffffffffffffffffffffff166105ff610f76565b73ffffffffffffffffffffffffffffffffffffffff16148061062e575061062d81610628610f76565b610d73565b5b61066d576040517f08c379a00000000000000000000000000000000000000000000000000000000081526004016106649061279b565b60405180910390fd5b6106778383610f7e565b505050565b6008602052806000526040600020600091509050805461069b90612b3b565b80601f01602080910402602001604051908101604052809291908181526020018280546106c790612b3b565b80156107145780601f106106e957610100808354040283529160200191610714565b820191906000526020600020905b8154815290600101906020018083116106f757829003601f168201915b505050505081565b61072d610727610f76565b82611037565b61076c576040517f08c379a0000000000000000000000000000000000000000000000000000000008152600401610763906128bb565b60405180910390fd5b610777838383611115565b505050565b61079783838360405180602001604052806000815250610bbf565b505050565b6000806002600084815260200190815260200160002060009054906101000a900473ffffffffffffffffffffffffffffffffffffffff169050600073ffffffffffffffffffffffffffffffffffffffff168173ffffffffffffffffffffffffffffffffffffffff161415610845576040517f08c379a000000000000000000000000000000000000000000000000000000000815260040161083c906127db565b60405180910390fd5b80915050919050565b6000610874604051806060016040528060228152602001612d1160229139600754611371565b600754905090565b60008073ffffffffffffffffffffffffffffffffffffffff168273ffffffffffffffffffffffffffffffffffffffff1614156108ed576040517f08c379a00000000000000000000000000000000000000000000000000000000081526004016108e4906127bb565b60405180910390fd5b600360008373ffffffffffffffffffffffffffffffffffffffff1673ffffffffffffffffffffffffffffffffffffffff168152602001908152602001600020549050919050565b60606001805461094390612b3b565b80601f016020809104026020016040519081016040528092919081815260200182805461096f90612b3b565b80156109bc5780601f10610991576101008083540402835291602001916109bc565b820191906000526020600020905b81548152906001019060200180831161099f57829003601f168201915b5050505050905090565b60008060075490506109d8338261140d565b6109e2818461142b565b7f63a4f2b6ee706dcbaac4f0fe826563f7ec9c4673777cdf988f6888cf0e2b6397338285604051610a1593929190612650565b60405180910390a160076000815480929190610a3090612b6d565b919050555080915050919050565b610a46610f76565b73ffffffffffffffffffffffffffffffffffffffff168273ffffffffffffffffffffffffffffffffffffffff161415610ab4576040517f08c379a0000000000000000000000000000000000000000000000000000000008152600401610aab9061275b565b60405180910390fd5b8060056000610ac1610f76565b73ffffffffffffffffffffffffffffffffffffffff1673ffffffffffffffffffffffffffffffffffffffff16815260200190815260200160002060008473ffffffffffffffffffffffffffffffffffffffff1673ffffffffffffffffffffffffffffffffffffffff16815260200190815260200160002060006101000a81548160ff0219169083151502179055508173ffffffffffffffffffffffffffffffffffffffff16610b6e610f76565b73ffffffffffffffffffffffffffffffffffffffff167f17307eab39ab6107e8899845ad3d59bd9653f200f220920489ca2b5937696c3183604051610bb3919061268e565b60405180910390a35050565b610bd0610bca610f76565b83611037565b610c0f576040517f08c379a0000000000000000000000000000000000000000000000000000000008152600401610c06906128bb565b60405180910390fd5b610c1b84848484611466565b50505050565b6060610c2c82610f0a565b610c6b576040517f08c379a0000000000000000000000000000000000000000000000000000000008152600401610c629061281b565b60405180910390fd5b6000600660008481526020019081526020016000208054610c8b90612b3b565b80601f0160208091040260200160405190810160405280929190818152602001828054610cb790612b3b565b8015610d045780601f10610cd957610100808354040283529160200191610d04565b820191906000526020600020905b815481529060010190602001808311610ce757829003601f168201915b505050505090506000610d156114c2565b9050600081511415610d2b578192505050610d6e565b600082511115610d60578082604051602001610d489291906125c5565b60405160208183030381529060405292505050610d6e565b610d69846114d9565b925050505b919050565b6000600560008473ffffffffffffffffffffffffffffffffffffffff1673ffffffffffffffffffffffffffffffffffffffff16815260200190815260200160002060008373ffffffffffffffffffffffffffffffffffffffff1673ffffffffffffffffffffffffffffffffffffffff16815260200190815260200160002060009054906101000a900460ff16905092915050565b610e9d81604051602401610e1b91906126a9565b6040516020818303038152906040527f41304fac000000000000000000000000000000000000000000000000000000007bffffffffffffffffffffffffffffffffffffffffffffffffffffffff19166020820180517bffffffffffffffffffffffffffffffffffffffffffffffffffffffff8381831617835250505050611580565b50565b60007f01ffc9a7000000000000000000000000000000000000000000000000000000007bffffffffffffffffffffffffffffffffffffffffffffffffffffffff1916827bffffffffffffffffffffffffffffffffffffffffffffffffffffffff1916149050919050565b60008073ffffffffffffffffffffffffffffffffffffffff166002600084815260200190815260200160002060009054906101000a900473ffffffffffffffffffffffffffffffffffffffff1673ffffffffffffffffffffffffffffffffffffffff1614159050919050565b600033905090565b816004600083815260200190815260200160002060006101000a81548173ffffffffffffffffffffffffffffffffffffffff021916908373ffffffffffffffffffffffffffffffffffffffff160217905550808273ffffffffffffffffffffffffffffffffffffffff16610ff18361079c565b73ffffffffffffffffffffffffffffffffffffffff167f8c5be1e5ebec7d5bd14f71427d1e84f3dd0314c0f7b2291e5b200ac8c7c3b92560405160405180910390a45050565b600061104282610f0a565b611081576040517f08c379a00000000000000000000000000000000000000000000000000000000081526004016110789061277b565b60405180910390fd5b600061108c8361079c565b90508073ffffffffffffffffffffffffffffffffffffffff168473ffffffffffffffffffffffffffffffffffffffff1614806110fb57508373ffffffffffffffffffffffffffffffffffffffff166110e3846104df565b73ffffffffffffffffffffffffffffffffffffffff16145b8061110c575061110b8185610d73565b5b91505092915050565b8273ffffffffffffffffffffffffffffffffffffffff166111358261079c565b73ffffffffffffffffffffffffffffffffffffffff161461118b576040517f08c379a00000000000000000000000000000000000000000000000000000000081526004016111829061285b565b60405180910390fd5b600073ffffffffffffffffffffffffffffffffffffffff168273ffffffffffffffffffffffffffffffffffffffff1614156111fb576040517f08c379a00000000000000000000000000000000000000000000000000000000081526004016111f29061273b565b60405180910390fd5b6112068383836115a9565b611211600082610f7e565b6001600360008573ffffffffffffffffffffffffffffffffffffffff1673ffffffffffffffffffffffffffffffffffffffff16815260200190815260200160002060008282546112619190612a51565b925050819055506001600360008473ffffffffffffffffffffffffffffffffffffffff1673ffffffffffffffffffffffffffffffffffffffff16815260200190815260200160002060008282546112b891906129ca565b92505081905550816002600083815260200190815260200160002060006101000a81548173ffffffffffffffffffffffffffffffffffffffff021916908373ffffffffffffffffffffffffffffffffffffffff160217905550808273ffffffffffffffffffffffffffffffffffffffff168473ffffffffffffffffffffffffffffffffffffffff167fddf252ad1be2c89b69c2b068fc378daa952ba7f163c4a11628f55a4df523b3ef60405160405180910390a4505050565b61140982826040516024016113879291906126cb565b6040516020818303038152906040527f9710a9d0000000000000000000000000000000000000000000000000000000007bffffffffffffffffffffffffffffffffffffffffffffffffffffffff19166020820180517bffffffffffffffffffffffffffffffffffffffffffffffffffffffff8381831617835250505050611580565b5050565b6114278282604051806020016040528060008152506115ae565b5050565b60075482111561143a57600080fd5b80600860008481526020019081526020016000209080519060200190611461929190611b2e565b505050565b611471848484611115565b61147d84848484611609565b6114bc576040517f08c379a00000000000000000000000000000000000000000000000000000000081526004016114b3906126fb565b60405180910390fd5b50505050565b606060405180602001604052806000815250905090565b60606114e482610f0a565b611523576040517f08c379a000000000000000000000000000000000000000000000000000000000815260040161151a9061287b565b60405180910390fd5b600061152d6114c2565b9050600081511161154d5760405180602001604052806000815250611578565b80611557846117a0565b6040516020016115689291906125c5565b6040516020818303038152906040525b915050919050565b60008151905060006a636f6e736f6c652e6c6f679050602083016000808483855afa5050505050565b505050565b6115b8838361194d565b6115c56000848484611609565b611604576040517f08c379a00000000000000000000000000000000000000000000000000000000081526004016115fb906126fb565b60405180910390fd5b505050565b600061162a8473ffffffffffffffffffffffffffffffffffffffff16611b1b565b15611793578373ffffffffffffffffffffffffffffffffffffffff1663150b7a02611653610f76565b8786866040518563ffffffff1660e01b81526004016116759493929190612604565b602060405180830381600087803b15801561168f57600080fd5b505af19250505080156116c057506040513d601f19601f820116820180604052508101906116bd9190611eda565b60015b611743573d80600081146116f0576040519150601f19603f3d011682016040523d82523d6000602084013e6116f5565b606091505b5060008151141561173b576040517f08c379a0000000000000000000000000000000000000000000000000000000008152600401611732906126fb565b60405180910390fd5b805181602001fd5b63150b7a0260e01b7bffffffffffffffffffffffffffffffffffffffffffffffffffffffff1916817bffffffffffffffffffffffffffffffffffffffffffffffffffffffff191614915050611798565b600190505b949350505050565b606060008214156117e8576040518060400160405280600181526020017f30000000000000000000000000000000000000000000000000000000000000008152509050611948565b600082905060005b6000821461181a57808061180390612b6d565b915050600a826118139190612a20565b91506117f0565b60008167ffffffffffffffff81111561185c577f4e487b7100000000000000000000000000000000000000000000000000000000600052604160045260246000fd5b6040519080825280601f01601f19166020018201604052801561188e5781602001600182028036833780820191505090505b5090505b60008514611941576001826118a79190612a51565b9150600a856118b69190612bb6565b60306118c291906129ca565b60f81b8183815181106118fe577f4e487b7100000000000000000000000000000000000000000000000000000000600052603260045260246000fd5b60200101907effffffffffffffffffffffffffffffffffffffffffffffffffffffffffffff1916908160001a905350600a8561193a9190612a20565b9450611892565b8093505050505b919050565b600073ffffffffffffffffffffffffffffffffffffffff168273ffffffffffffffffffffffffffffffffffffffff1614156119bd576040517f08c379a00000000000000000000000000000000000000000000000000000000081526004016119b4906127fb565b60405180910390fd5b6119c681610f0a565b15611a06576040517f08c379a00000000000000000000000000000000000000000000000000000000081526004016119fd9061271b565b60405180910390fd5b611a12600083836115a9565b6001600360008473ffffffffffffffffffffffffffffffffffffffff1673ffffffffffffffffffffffffffffffffffffffff1681526020019081526020016000206000828254611a6291906129ca565b92505081905550816002600083815260200190815260200160002060006101000a81548173ffffffffffffffffffffffffffffffffffffffff021916908373ffffffffffffffffffffffffffffffffffffffff160217905550808273ffffffffffffffffffffffffffffffffffffffff16600073ffffffffffffffffffffffffffffffffffffffff167fddf252ad1be2c89b69c2b068fc378daa952ba7f163c4a11628f55a4df523b3ef60405160405180910390a45050565b600080823b905060008111915050919050565b828054611b3a90612b3b565b90600052602060002090601f016020900481019282611b5c5760008555611ba3565b82601f10611b7557805160ff1916838001178555611ba3565b82800160010185558215611ba3579182015b82811115611ba2578251825591602001919060010190611b87565b5b509050611bb09190611bb4565b5090565b5b80821115611bcd576000816000905550600101611bb5565b5090565b6000611be4611bdf84612927565b6128f6565b905082815260208101848484011115611bfc57600080fd5b611c07848285612af9565b509392505050565b6000611c22611c1d84612957565b6128f6565b905082815260208101848484011115611c3a57600080fd5b611c45848285612af9565b509392505050565b600081359050611c5c81612cb4565b92915050565b600081359050611c7181612ccb565b92915050565b600081359050611c8681612ce2565b92915050565b600081519050611c9b81612ce2565b92915050565b600082601f830112611cb257600080fd5b8135611cc2848260208601611bd1565b91505092915050565b600082601f830112611cdc57600080fd5b8135611cec848260208601611c0f565b91505092915050565b600081359050611d0481612cf9565b92915050565b600060208284031215611d1c57600080fd5b6000611d2a84828501611c4d565b91505092915050565b60008060408385031215611d4657600080fd5b6000611d5485828601611c4d565b9250506020611d6585828601611c4d565b9150509250929050565b600080600060608486031215611d8457600080fd5b6000611d9286828701611c4d565b9350506020611da386828701611c4d565b9250506040611db486828701611cf5565b9150509250925092565b60008060008060808587031215611dd457600080fd5b6000611de287828801611c4d565b9450506020611df387828801611c4d565b9350506040611e0487828801611cf5565b925050606085013567ffffffffffffffff811115611e2157600080fd5b611e2d87828801611ca1565b91505092959194509250565b60008060408385031215611e4c57600080fd5b6000611e5a85828601611c4d565b9250506020611e6b85828601611c62565b9150509250929050565b60008060408385031215611e8857600080fd5b6000611e9685828601611c4d565b9250506020611ea785828601611cf5565b9150509250929050565b600060208284031215611ec357600080fd5b6000611ed184828501611c77565b91505092915050565b600060208284031215611eec57600080fd5b6000611efa84828501611c8c565b91505092915050565b600060208284031215611f1557600080fd5b600082013567ffffffffffffffff811115611f2f57600080fd5b611f3b84828501611ccb565b91505092915050565b600060208284031215611f5657600080fd5b6000611f6484828501611cf5565b91505092915050565b611f7681612a85565b82525050565b611f8581612a97565b82525050565b6000611f9682612987565b611fa0818561299d565b9350611fb0818560208601612b08565b611fb981612ca3565b840191505092915050565b6000611fcf82612992565b611fd981856129ae565b9350611fe9818560208601612b08565b611ff281612ca3565b840191505092915050565b600061200882612992565b61201281856129bf565b9350612022818560208601612b08565b80840191505092915050565b600061203b6032836129ae565b91507f4552433732313a207472616e7366657220746f206e6f6e20455243373231526560008301527f63656976657220696d706c656d656e74657200000000000000000000000000006020830152604082019050919050565b60006120a1601c836129ae565b91507f4552433732313a20746f6b656e20616c7265616479206d696e746564000000006000830152602082019050919050565b60006120e16024836129ae565b91507f4552433732313a207472616e7366657220746f20746865207a65726f2061646460008301527f72657373000000000000000000000000000000000000000000000000000000006020830152604082019050919050565b60006121476019836129ae565b91507f4552433732313a20617070726f766520746f2063616c6c6572000000000000006000830152602082019050919050565b6000612187602c836129ae565b91507f4552433732313a206f70657261746f7220717565727920666f72206e6f6e657860008301527f697374656e7420746f6b656e00000000000000000000000000000000000000006020830152604082019050919050565b60006121ed6038836129ae565b91507f4552433732313a20617070726f76652063616c6c6572206973206e6f74206f7760008301527f6e6572206e6f7220617070726f76656420666f7220616c6c00000000000000006020830152604082019050919050565b6000612253602a836129ae565b91507f4552433732313a2062616c616e636520717565727920666f7220746865207a6560008301527f726f2061646472657373000000000000000000000000000000000000000000006020830152604082019050919050565b60006122b96029836129ae565b91507f4552433732313a206f776e657220717565727920666f72206e6f6e657869737460008301527f656e7420746f6b656e00000000000000000000000000000000000000000000006020830152604082019050919050565b600061231f6020836129ae565b91507f4552433732313a206d696e7420746f20746865207a65726f20616464726573736000830152602082019050919050565b600061235f6031836129ae565b91507f45524337323155524953746f726167653a2055524920717565727920666f722060008301527f6e6f6e6578697374656e7420746f6b656e0000000000000000000000000000006020830152604082019050919050565b60006123c5602c836129ae565b91507f4552433732313a20617070726f76656420717565727920666f72206e6f6e657860008301527f697374656e7420746f6b656e00000000000000000000000000000000000000006020830152604082019050919050565b600061242b6029836129ae565b91507f4552433732313a207472616e73666572206f6620746f6b656e2074686174206960008301527f73206e6f74206f776e00000000000000000000000000000000000000000000006020830152604082019050919050565b6000612491602f836129ae565b91507f4552433732314d657461646174613a2055524920717565727920666f72206e6f60008301527f6e6578697374656e7420746f6b656e00000000000000000000000000000000006020830152604082019050919050565b60006124f76021836129ae565b91507f4552433732313a20617070726f76616c20746f2063757272656e74206f776e6560008301527f72000000000000000000000000000000000000000000000000000000000000006020830152604082019050919050565b600061255d6031836129ae565b91507f4552433732313a207472616e736665722063616c6c6572206973206e6f74206f60008301527f776e6572206e6f7220617070726f7665640000000000000000000000000000006020830152604082019050919050565b6125bf81612aef565b82525050565b60006125d18285611ffd565b91506125dd8284611ffd565b91508190509392505050565b60006020820190506125fe6000830184611f6d565b92915050565b60006080820190506126196000830187611f6d565b6126266020830186611f6d565b61263360408301856125b6565b81810360608301526126458184611f8b565b905095945050505050565b60006060820190506126656000830186611f6d565b61267260208301856125b6565b81810360408301526126848184611fc4565b9050949350505050565b60006020820190506126a36000830184611f7c565b92915050565b600060208201905081810360008301526126c38184611fc4565b905092915050565b600060408201905081810360008301526126e58185611fc4565b90506126f460208301846125b6565b9392505050565b600060208201905081810360008301526127148161202e565b9050919050565b6000602082019050818103600083015261273481612094565b9050919050565b60006020820190508181036000830152612754816120d4565b9050919050565b600060208201905081810360008301526127748161213a565b9050919050565b600060208201905081810360008301526127948161217a565b9050919050565b600060208201905081810360008301526127b4816121e0565b9050919050565b600060208201905081810360008301526127d481612246565b9050919050565b600060208201905081810360008301526127f4816122ac565b9050919050565b6000602082019050818103600083015261281481612312565b9050919050565b6000602082019050818103600083015261283481612352565b9050919050565b60006020820190508181036000830152612854816123b8565b9050919050565b600060208201905081810360008301526128748161241e565b9050919050565b6000602082019050818103600083015261289481612484565b9050919050565b600060208201905081810360008301526128b4816124ea565b9050919050565b600060208201905081810360008301526128d481612550565b9050919050565b60006020820190506128f060008301846125b6565b92915050565b6000604051905081810181811067ffffffffffffffff8211171561291d5761291c612c74565b5b8060405250919050565b600067ffffffffffffffff82111561294257612941612c74565b5b601f19601f8301169050602081019050919050565b600067ffffffffffffffff82111561297257612971612c74565b5b601f19601f8301169050602081019050919050565b600081519050919050565b600081519050919050565b600082825260208201905092915050565b600082825260208201905092915050565b600081905092915050565b60006129d582612aef565b91506129e083612aef565b9250827fffffffffffffffffffffffffffffffffffffffffffffffffffffffffffffffff03821115612a1557612a14612be7565b5b828201905092915050565b6000612a2b82612aef565b9150612a3683612aef565b925082612a4657612a45612c16565b5b828204905092915050565b6000612a5c82612aef565b9150612a6783612aef565b925082821015612a7a57612a79612be7565b5b828203905092915050565b6000612a9082612acf565b9050919050565b60008115159050919050565b60007fffffffff0000000000000000000000000000000000000000000000000000000082169050919050565b600073ffffffffffffffffffffffffffffffffffffffff82169050919050565b6000819050919050565b82818337600083830152505050565b60005b83811015612b26578082015181840152602081019050612b0b565b83811115612b35576000848401525b50505050565b60006002820490506001821680612b5357607f821691505b60208210811415612b6757612b66612c45565b5b50919050565b6000612b7882612aef565b91507fffffffffffffffffffffffffffffffffffffffffffffffffffffffffffffffff821415612bab57612baa612be7565b5b600182019050919050565b6000612bc182612aef565b9150612bcc83612aef565b925082612bdc57612bdb612c16565b5b828206905092915050565b7f4e487b7100000000000000000000000000000000000000000000000000000000600052601160045260246000fd5b7f4e487b7100000000000000000000000000000000000000000000000000000000600052601260045260246000fd5b7f4e487b7100000000000000000000000000000000000000000000000000000000600052602260045260246000fd5b7f4e487b7100000000000000000000000000000000000000000000000000000000600052604160045260246000fd5b6000601f19601f8301169050919050565b612cbd81612a85565b8114612cc857600080fd5b50565b612cd481612a97565b8114612cdf57600080fd5b50565b612ceb81612aa3565b8114612cf657600080fd5b50565b612d0281612aef565b8114612d0d57600080fd5b5056fe536f2066617220256420656d6f7465732068617665206265656e206d696e74656421a264697066735822122002c094550cbecd57da3fea752b16a91a90834983c5bfc17b14c705af604cae4864736f6c63430008000033436f6e7374727563746f7220626520776f726b696e67202d2d2075206465706c6f79696e6720796f757220636f6e74726163742e",
    "linkReferences": {},
    "deployedLinkReferences": {}
}